:020000040800F2
:100000000000022079060008C506000899310008A2
:100010009F310008A5310008AB3100080000000046
:10002000000000000000000000000000C9400008BF
:10003000C506000800000000614100087141000889
:10004000C5060008C5060008C5060008C506000864
:10005000C5060008C5060008C5060008C506000854
:10006000C5060008C5060008C506000851140008AA
:100070005D14000869140008751400088114000854
:100080008D14000899140008C5060008D10700085F
:10009000C5070008C5060008D5070008C506000802
:1000A000C5060008C5060008C5060008C506000804
:1000B000C5060008C5060008C5060008C5060008F4
:1000C000C5060008C5060008C50600083D12000860
:1000D00049120008C5060008C5060008C506000844
:1000E000C5060008C5060008C5060008C5060008C4
:1000F000C5060008C5060008C5060008A5140008C6
:10010000C5060008C5060008C50600085512000807
:10011000C5060008C5060008C5060008C506000893
:10012000B1140008BD140008C9140008D514000853
:10013000E11400080000000000000000E5070008CE
:10014000D9070008C5060008E9070008C506000829
:10015000ED140008F914000805150008C50600088C
:10016000C5060008C5060008C5060008C506000843
:10017000C5060008C5060008C50600080000000006
:1001800000000000C506000800000000000000009C
:10019000611200080000000000000000C506000811
:1001A000000000000000000000000000C50600087C
:1001B000C5060008C5060008C5060008C5060008F3
:1001C000C50600080348044B834202D0034B03B129
:1001D00018477047100C0020100C00200000000091
:1001E0000548064B1B1AD90F01EBA301491002D099
:1001F000034B03B118477047100C0020100C00206F
:100200000000000010B5064C237843B9FFF7DAFF71
:10021000044B13B10448AFF300800123237010BDD9
:10022000200C002000000000C40F010808B5054B99
:100230001BB105490548AFF30080BDE80840FFF752
:10024000CFBF00BF00000000240C0020C40F010835
:10025000A3F5803A704700BF174B002B08BF134B24
:100260009D46FFF7F5FF00218B460F461348144AC1
:10027000121A09F07FF90E4B002B00D098470D4B56
:10028000002B00D098470020002104000D000D48ED
:10029000002802D00C4803F093FB09F06FFA20000D
:1002A000290003F08FFE03F089FD00BF0000080065
:1002B00000000000153F000800000220200C002074
:1002C000582D0020C13900080000000073B500F06F
:1002D000CFFD041E2CDB174E56F82400002827D033
:1002E0004823154D6343EB581A68120606D5DB68A0
:1002F000190603D5114B01211B6898474823634316
:10030000EB581A68920608D5DB68980605D50B4BA2
:1003100056F824001B680021984748235C432B595A
:100320001A68110704D55A69D20744BF5B68019364
:1003300002B070BDF00D0020400C00203C0C0020ED
:100340000148FFF7C3BF00BF001401400148FFF799
:10035000BDBF00BF005000400148FFF7B7BF00BF5E
:10036000004C00400148FFF7B1BF00BF004800400B
:100370000148FFF7ABBF00BF004400400148FFF752
:10038000A5BF00BF00100140044A4109012300F04D
:100390001F00834042F82130704700BF00E100E0B9
:1003A0004309064900F01F0020330122824041F832
:1003B0002320BFF34F8FBFF36F8F704700E100E042
:1003C000034B19604168034B43F82120704700BF7D
:1003D0003C0C0020F00D002030B4D0E900352B4853
:1003E000834237D020D8A0F5006083422CD000F59E
:1003F000806083422BD0A0F50060834221D000248E
:10040000204648235D43224B5B594AB3DA6821BB3F
:1004100042F02002DA601F4B00F110029B6843F8A3
:10042000224030BCFFF7B0BF1B48834206D000F526
:1004300080608342E3D1194C4720E2E7184C252025
:10044000DFE7184C2620DCE7174C2720D9E7174CAC
:100450003420D6E7164C3520D3E742F08002D9E7A6
:10046000DA6849B922F02002DA60DB6813F0800F05
:1004700009D130BCFFF794BF22F08002DA60DB685C
:1004800013F0200FF4E730BC704700BF005000406D
:10049000400C002000ED00E0001001404103000886
:1004A0007D03000871030008650300085903000874
:1004B0004D03000838B545680446204600F076FC38
:1004C0000028FAD048235D436269074B5B591AB98B
:1004D0005868C0F3080038BDE268586812B900F0E7
:1004E0007F00F8E7C0B2F6E7400C002070B5456821
:1004F00006460C46304600F071FC0028FAD048232E
:100500005D43034B5B59C4F308045C6070BD00BFDE
:10051000400C002010B594B0284B002100911A6CBB
:1005200042F080521A641B6C03F080530093009BCE
:10053000234B01911A6842F440421A601B6803F48D
:1005400040430193044607A8019B01F053FC0D9B17
:10055000022B15D101F018F968BB0F220223CDE957
:1005600002234FF4A0514FF48053CDE905130490BA
:10057000052102A801F042F9B0FA80F040091BE021
:100580000123002C079314BF4FF4A0234FF48033B2
:100590004FF48002089302230820CDE90D324FF476
:1005A000B472CDE90F0207A8CDE91133139301F01E
:1005B00051FA0028CED0002014B010BD00380240FF
:1005C0000070004010B594B00023224A0093116CD3
:1005D00041F080511164126C02F080520092009A36
:1005E0001D4A0193116841F440411160126808935B
:1005F00002F4404201920224019A0322CDE90D4304
:1006000007924FF4B4730122CDE910340A92062305
:10061000102207A8CDE912340B920F9201F01AFABA
:1006200010B1002014B010BD01F0AEF80028F8D1D0
:100630000F23CDE9023404904FF4A0524FF48053BD
:10064000052102A8CDE9052301F0D8F8B0FA80F021
:100650004009E7E7003802400070004008B501207B
:10066000FFF758FF28B9FFF7ADFF10B9014803F0B5
:10067000EFF808BD9CFB0008DFF830D00C480D49AE
:100680000D4A002302E0D458C4500433C4188C42ED
:10069000F9D30A4A0A4C002301E013600432A24253
:1006A000FBD301F015FEFFF7D7FD704700000220D5
:1006B000C8010020100C0020D00F0108200C0020E1
:1006C000582D0020FEE7000043692DE9F041DF07C7
:1006D00004460D462BD536498768364E82688368B6
:1006E000354807EA010CB94308BF012102EA0602B6
:1006F00008BFA160B24208BF4FF4807103EA000353
:1007000008BFA160834204BF4FF48031A160284933
:100710008C4505D027498A4202D0274A934206D108
:10072000264B274A1B6852F8250001219847E268AA
:10073000636996070CD098070AD56369204A23F0AD
:10074000020363611D4B52F825001B680021984786
:10075000A1696269636989070AD5970508D51E04EE
:1007600006D5164B164A1B6852F8250005219847F6
:10077000A16962696369480702D46369BDE8F081D1
:100780005105FAD51A040BD463691B04F6D50B4B3B
:100790000B4A1B6852F825000221BDE8F0411847BA
:1007A000074A064B52F825001B6807219847EBE7DC
:1007B000030000040003000800000310080E0020DE
:1007C0000C0E002001480021FFF77EBF00640040AE
:1007D000FFF7F8BFFFF7F6BF01480121FFF774BF2D
:1007E00000680040FFF7F8BFFFF7F6BF30B591FA99
:1007F000A1F391FAA1F1B3FA83F304685B00032536
:10080000B1FA81F105FA03F3490024EA03038A40AF
:100810001A43026030BD000000B5374B89B000229A
:10082000072866D8DFE800F004111D2935414D592D
:1008300000921A6B314842F001021A631B6B03F0FD
:1008400001030093009B09B000BD01921A6B2C4874
:1008500042F002021A631B6B03F002030193019B37
:10086000F1E702921A6B274842F004021A631B6BED
:1008700003F004030293029BE5E703921A6B2248FC
:1008800042F008021A631B6B03F008030393039BF7
:10089000D9E704921A6B1D4842F010021A631B6BD1
:1008A00003F010030493049BCDE705921A6B1848DC
:1008B00042F020021A631B6B03F020030593059B93
:1008C000C1E706921A6B134842F040021A631B6B91
:1008D00003F040030693069BB5E707921A6B0E4898
:1008E00042F080021A631B6B03F080030793079B9F
:1008F000A9E70A4802F0ACFF0038024000000240BD
:100900000004024000080240000C024000100240B7
:100910000014024000180240001C0240B0FB000816
:10092000431C10B504D107490748772202F066FD41
:100930004FF4707100F00F0400F0B8F80120A040EF
:1009400010BD00BF0AFC000815FC00084B1C70B568
:1009500004460E46018216D0C1F30310FFF75CFF78
:1009600005463046FFF7DCFF238A074A656103F03E
:100970000F03206052F82330A36105F110031835EE
:10098000C4E90255636070BD10090108B0F9100098
:1009900000F01CB90A46D0E905010AB9FFF726BFE5
:1009A0000122FBE708B500F079FC002008BD00003B
:1009B00038B502F0E5FD124B124913485C6A026833
:1009C0000B889B1A2344B3F5803F16D34FF47A75F6
:1009D000B3FBF5F205FB123305E00132A3F57A73A0
:1009E000B3F57A7FF9D20460084C0B802368134476
:1009F000236002F0DBFD206838BD0022F0E700BF75
:100A0000000C0040140E00201C0E0020180E0020C8
:100A10007047704710B5FFF7FCFF01F067FC00F06E
:100A200079FD0B4B1C6F14F0020404D100F06EFE34
:100A3000204600F0BBFFFFF711FE01F057FC00F06D
:100A4000F7FCFFF7E5FF034B01221A6010BD00BF62
:100A500000380240200E002030B591FAA1F391FA3F
:100A6000A1F1B3FA83F384685B000325B1FA81F145
:100A700005FA03F3490024EA03038A401A4382601B
:100A800030BD30B591FAA1F391FAA1F1B3FA83F335
:100A9000C4685B000325B1FA81F105FA03F349004C
:100AA00024EA03038A401A43C26030BDB0F1FF3F1D
:100AB0002DE9F84380460E467FD000F00F02404BF0
:100AC000C0F3031053F82250C1F3831901F0070754
:100AD000FFF7A2FEB9F10F0F0CBF03224A462946C9
:100AE0000446FFF7B9FF032F5ED8DFE807F0626422
:100AF0002C02032395FAA5F2B2FA82F22168520081
:100B0000032000FA02F221EA020195FAA5F2B2FAF4
:100B100082F252009340013F0B43012F236005D81E
:100B2000636832074CBF2B43AB436360C6F30112CB
:100B3000012A02D0022A18BF002229462046BDE819
:100B4000F843FFF79EBF18F0080FC6F3832217D0B3
:100B50002B0A93FAA3F1B1FA81F1406A93FAA3F355
:100B600089004FF00F0CB3FA83F30CFA01F19B00EC
:100B700020EA010102FA03F30B4363620223B9E79F
:100B800095FAA5F3B3FA83F3016A9B000F2000FAEC
:100B900003F321EA030195FAA5F3B3FA83F39B006B
:100BA0009A400A432262E9E706490748D52202F043
:100BB00025FC00239EE701239CE7BDE8F88300BFE6
:100BC0001009010861FC000891040108431C70B57C
:100BD0000D4634D000F00F02194BC0F3031053F848
:100BE0002240FFF719FE94FAA4F194FAA4F20668E1
:100BF000B1FA81F18AB149000323B2FA82F28B4043
:100C000033405200D340013B012B06D8EB1E022B90
:100C1000436894BF2343A3434360013D042D0CD894
:100C2000DFE805F00309030B090001222146BDE8B6
:100C30007040FFF726BF0222F8E70022F6E770BDFA
:100C4000100901080FB407B5064B07491B6805AA30
:100C5000D868019207F06CFE03B05DF804EB04B0B5
:100C6000704700BFF80900206AFC00080368474A83
:100C7000934210B504461ED102F59432516A41F0F8
:100C800010015162516A21F010015162516C21F042
:100C9000100151643E4A93421DD13E4B5A6A42F0C4
:100CA00020025A625A6A22F020025A625A6C22F0DA
:100CB00020025A640FE0384A934236D1354B1A6A03
:100CC00042F400321A621A6A22F400321A621A6C72
:100CD00022F400321A64B4F9180040F2C331FFF76D
:100CE000E5FEB4F91A0040F2C331FFF7DFFE236AD4
:100CF00023F40073B3F5807F05D1B4F9240040F2EA
:100D0000C331FFF7D3FE236A23F48073B3F5007F6A
:100D100005D1B4F9260040F2C331FFF7C7FE62687F
:100D20001E4B002143F8221010BD1D4A93420CD1E6
:100D3000184B1A6A42F480221A621A6A22F480223C
:100D40001A621A6C22F48022C4E7164A93420CD12C
:100D5000104B1A6A42F400221A621A6A22F4002224
:100D60001A621A6C22F40022B4E70F4A934291D11E
:100D7000084B1A6A42F480121A621A6A22F480122C
:100D80001A621A6C22F48012A4E700BF001001401E
:100D9000001401400038024000440040F00D0020E3
:100DA00000480040004C004000500040436848228A
:100DB0005343094AD3581A68120782B006D5002255
:100DC00001921A6801925A680192019A1868C0F358
:100DD000401002B0704700BF400C0020436848221A
:100DE0005343034AD3581868C0F3C010704700BF7C
:100DF000400C002030B44468144A0568482161431F
:100E00008B18555081685960C16899600169D96033
:100E100041691961016A99610021D9849984D98550
:100E20009985D961B0F91A1001310DD0B0F91810B7
:100E3000481C0CBF04210C21482000FB042230BCBC
:100E40005161184601F015BA0821F5E7400C002061
:100E500010B581600C46FFF7CDFF28B1214603484D
:100E6000BDE81040FFF7EEBE10BD00BF6AFC0008F1
:100E7000124B984217D0A3F54C43984215D003F576
:100E80008063984213D003F58063984211D003F534
:100E9000806398420FD003F5444398420CBF05206D
:100EA0004FF0FF307047002070470120704702204C
:100EB0007047032070470420704700BF00100140B6
:100EC0002DE9F0470F4686B063490446384616467A
:100ED00001F0E2FF61498046304601F0DDFF014646
:100EE000404601F0B7FF5C490546384601F0EAFF8D
:100EF0005A498246304601F0E5FF022F81460AD06A
:100F0000032E08D05449022001F0C6FF40450CD101
:100F1000534802F09DFC4FF00108691C256007D181
:100F200050495148412202F069FA4FF00008F4E7B5
:100F30004E4B9D424FF000031AD100934C4B5A6C1C
:100F400042F010025A645B6C03F010030093009BA4
:100F5000484B9D421AD100230593454B5A6C42F0F1
:100F600020025A645B6C03F020030593059B0DE09F
:100F7000414A954214D101933D4B1A6C42F4003220
:100F80001A641B6C03F400330193019B2846FFF79E
:100F90006FFF6060013030D132493848A022C2E78B
:100FA000374A95420BD10293314B1A6C42F480229E
:100FB0001A641B6C03F480230293029BE6E7314A18
:100FC00095420BD103932A4B1A6C42F400221A6407
:100FD0001B6C03F400230393039BD7E72A4A954233
:100FE000B6D10493224B1A6C42F480121A641B6C23
:100FF00003F480130493049BC8E751463846FFF777
:1010000055FD01213846FFF7E1FD49463046FFF71F
:101010004DFD30460121FFF7D9FD00234FF4E132A9
:10102000C4E90223C4E9043323622783668320468C
:10103000FFF7E0FEB8F1000F0AD0144B144801226C
:101040001A6021464C2206B0BDE8F04708F028BCE3
:1010500006B0BDE8F08700BF24FB0008ACFA00082A
:1010600094FC000802FD00080FFD0008001001407C
:101070000038024000140140004400402BFD0008ED
:1010800000480040004C004000500040700E00201E
:10109000240E00201E4BD86810F4005018BF1868AA
:1010A0001C4BDA681CBFC0F3801080F00100920472
:1010B00041BF1B68C3F3801383F001031843164B31
:1010C000DA68910441BF1B68C3F3801383F0010306
:1010D0001843124BDA68920441BF1B68C3F38013B4
:1010E00083F0010318430E4BDA68910441BF1B687B
:1010F000C3F3801383F0010318430A4BDA689204A8
:1011000041BF1B68C3F3801383F00103184370478A
:10111000001001400044004000480040004C0040E6
:101120000050004000140140034A516A536A5B1AA0
:101130008342FBD3704700BF000C004010B5002471
:1011400086B01422214601A8009408F013FA6946DB
:1011500001A800F00DFC0F230099019301A8CDE92F
:1011600002440594049400F049FB10B1024802F0D7
:101170006FFB06B010BD00BF3DFD000810B58EB07E
:101180000021342201A808F0F5F900240E4B009448
:101190001A6C42F080521A641B6C03F08053009367
:1011A00001A8009B00F026FE0223019301211023D9
:1011B00001A8CDE90413079400F04CFC10B10348DA
:1011C00002F046FB0EB010BD0038024065FD00087D
:1011D00008B502F0D5F9064B1868012110F001009E
:1011E00018BF084600F0A0FABDE8084002F0DEB9DA
:1011F0000070004038B5FFF74DFF0546D8B902F042
:10120000BFF90D4C00F0E4F80121084600F09EFA09
:101210002560FFF7B3FFFFF791FFFFF71FFA4FF4C9
:10122000FA70FFF781FF00F0EBF801232360BDE8BF
:10123000384002F0BBB938BD200E0020014B1868C1
:1012400000F020BE800E0020014B186800F01ABE8E
:101250007C0E0020014B186800F014BE780E0020B0
:10126000014B186800F00EBE740E0020074B084AB0
:1012700013601A69910707D5DA68920704D56FF0F1
:1012800002021A6101F02CBF704700BF000C004041
:10129000900E0020004870475009010830B589B011
:1012A00001A903A800F064FB00F042FB00230293B5
:1012B000204B01901A6C204C42F008021A641A6C00
:1012C00002F008020292029A1A6A42F008021A62B6
:1012D0001A6A22F008021A62069AA3F50B332360F9
:1012E0004FF0FF33E360154BFAB9B0FBF3F3581E30
:1012F0000025606010482561C4E90555A56000F02F
:10130000BBFE0F4B0F4A9B68C3F808210E4B4FF4EE
:1013100080225A600848294600F0E8FE2268D36817
:1013200023F00203D36009B030BD4000B0FBF3F0FE
:101330000138DDE700380240900E002040420F00E7
:1013400000ED00E06D12000800E100E004480268D2
:10135000D36823F00203D360002100F0C7BE00BFB2
:10136000900E0020014B586A704700BF000C0040EF
:10137000054B1B686FF0020258631A61DA6842F08D
:101380000202DA60704700BF900E0020064B1B6817
:101390006FF002021A615A6942F002025A61DA6879
:1013A00042F00202DA607047900E0020034B1A6888
:1013B000D36823F00203D360704700BF900E002073
:1013C000024B1B686FF002021A617047900E0020FA
:1013D000064B074A1B68596A11605A6B054B1A6025
:1013E000054BDA68054B1A60704700BF900E00206D
:1013F0008C0E0020880E0020000C0040840E00207F
:10140000064B074A1B6812685A62064A12685A63FA
:10141000054B1A68054BDA60704700BF900E00203C
:101420008C0E0020880E0020840E0020000C00404E
:101430001FB5054B0FCB8DE80F00684603F0E4FDA8
:10144000024B186005B000BD58090108740F002058
:10145000014B586800F09CB8D80E0020014BD868AA
:1014600000F096B8D80E0020014B586900F090B8F3
:10147000D80E0020014BD86900F08AB8D80E0020A1
:10148000014B586A00F084B8D80E0020014BD86A8E
:1014900000F07EB8D80E0020014B586B00F078B8F1
:1014A000D80E0020014BD86B00F072B8D80E002087
:1014B000014B586C00F06CB8D80E0020014BD86C72
:1014C00000F066B8D80E0020014B586D00F060B8EF
:1014D000D80E0020014BD86D00F05AB8D80E00206D
:1014E000014B586E00F054B8D80E0020014BD86E56
:1014F00000F04EB8D80E0020014B586F00F048B8ED
:10150000D80E0020014BD86F00F042B8D80E002052
:101510007047000008B50B4B1A6842F400721A605D
:101520001A6842F480621A601A6842F480721A6083
:10153000032000F009F80F20FFF734FAFFF7E8FF67
:10154000002008BD003C02400749CA6822F4E0625E
:101550000302120403F4E063120C134343F0BF636D
:1015600043F40033CB60704700ED00E090F8353075
:10157000022B03D0802343650120704702680523B6
:1015800080F83530136823F00103136000207047A2
:10159000F7B5002301935C4B856D1F68C36D2E6802
:1015A00008229A40324204460CD00168086840077D
:1015B00008D5086820F004000860AA60626D42F057
:1015C0000102626501229A40324208D021684969CD
:1015D000090641BFAA60626D42F002026265042200
:1015E0009A40324208D021680968880741BFAA6042
:1015F000626D42F00402626510229A40324210D0BD
:101600002368196809070CD5AA601A68500337D5F2
:101610001B68190301D4236C00E0A36C0BB12046B6
:101620009847E16D20228A4032423AD023681868F8
:10163000C60636D5AA6094F83520052A1A6827D13F
:1016400022F016021A605A6922F080025A61226C56
:101650000AB9A26C1AB11A6822F008021A603F2374
:101660008B40AB60012384F83530002384F834309C
:10167000236D002B45D0204603B0BDE8F04018474D
:101680001A68D2055EBF1A6822F008021A60C2E723
:10169000500327D51B68190331D4636C0BB1204666
:1016A0009847636D6BB3636DDA0719D522684FF401
:1016B0001653B7FBF3F7052384F83530136823F08E
:1016C00001031360019B0133BB42019302D81368ED
:1016D000DB07F7D4012384F83530002384F8343055
:1016E000E36CC6E71A6812F4807208D1196821F019
:1016F00010011960012384F8353084F83420E36B3D
:10170000CCE703B0F0BD00BFD0010020044B0122A4
:1017100082B01A62034B1B680193019B02B07047B1
:1017200000000E4200700040074A1369012923F0AF
:101730000403136101D130BF7047032901D040BFBA
:1017400020BF20BF704700BF00ED00E00C4A1368C7
:1017500023F00303034313600A4B1A69012942F083
:1017600004021A6105D130BF1A6922F004021A611D
:101770007047032901D040BF20BF20BFF4E700BF5E
:101780000070004000ED00E037B500230193184BD6
:10179000184C1A6C42F080521A641B6C03F0805390
:1017A0000193019B144B01221A64FFF701F90546CE
:1017B0006368DA030BD5104B0E4C01225A64FFF715
:1017C000F7F8054663689B030AD5002006E0FFF79B
:1017D000EFF8401BB0F57A7FEAD9032003B030BDA3
:1017E000FFF7E6F8401BB0F57A7FEBD9F5E700BFCD
:1017F000003802400070004000000E422DE9F04128
:1018000004460D4610B90120BDE8F081434B1A682B
:1018100002F00F028A4228D321688F072DD4C8070F
:1018200040D43E4B1A6802F00F02AA4265D82268E3
:1018300051076AD4130707D5394A2169936823F4FD
:10184000604343EAC103936000F0BCF8344B354A6F
:101850009B68C3F30313D35CD840334B1860334BFE
:101860001868FFF79FF80020CEE719701B6803F097
:101870000F038B420A46C6D1CEE7294B11F0040F65
:101880001EBF9A6842F4E0529A600E0742BF9A68FF
:1018900042F460429A609A68A06822F0F002024323
:1018A0009A60BCE762681E4B012A1CD11B6813F4C6
:1018B000003FA8D01A4EB36823F003031343B3606C
:1018C000FFF776F841F288380746B368626803F09C
:1018D0000C03B3EB820FA4D0FFF76AF8C01B40459E
:1018E000F3D9032090E7911E01291B6802D813F059
:1018F000007FDEE713F0020FDBE71D701B6803F0CB
:101900000F03AB427FF47FAF91E70549E0688B6836
:1019100023F4E05303438B608CE700BF003C02409C
:101920000038024070090108D0010020CC010020DD
:10193000044B054A9B68C3F38223D35C034A1068B7
:10194000D84070470038024068090108D0010020E3
:10195000044B054A9B68C3F34233D35C034A1068C7
:10196000D84070470038024068090108D0010020C3
:101970000F2303600B4B9A6802F0030242609A68DF
:1019800002F0F00282609A6802F4E052C2609B6842
:10199000DB0803F4E0530361034B1B6803F00F0300
:1019A0000B60704700380240003C0240044B1A6F45
:1019B00001280CBF42F0080222F008021A677047A3
:1019C00000380240204908B58B6803F00C03082B4F
:1019D00007D00C2B20D01D481D4A042B18BF1046E1
:1019E00008BD4A684B68496813F4800314BF174860
:1019F0001748C1F3881118BF002302F03F02A1FB72
:101A000000010DF09DFE104B5B68C3F301430133F1
:101A10005B00B0FBF3F0E3E74A684B68496813F4F6
:101A2000800314BF09480A48C1F3881118BF002376
:101A300002F03F02A1FB00010DF082FE024B5B6849
:101A4000C3F30273E5E700BF0038024000127A00DA
:101A50000024F4002DE9F3410446002831D0036846
:101A6000DF0710D423689E0767D42368190700F1A5
:101A7000B28023685A0700F1D280A369002B40F09E
:101A80003C81002034E0964B9A6802F00C02042A54
:101A900010D09A6802F00C02082A02D15B685D023D
:101AA00008D48F4B9A6802F00C020C2A0BD15A68AA
:101AB000510208D58A4B1B689A03D3D56368002B63
:101AC000D0D1012014E06268B2F5803F13D11A68CA
:101AD00042F480321A60FEF76BFF814D06462B6898
:101AE0009B03BFD4FEF764FF801B6428F7D9032053
:101AF00002B0BDE8F0817A4DB2F5A02F2B6807D176
:101B000043F480232B602B6843F480332B60E2E79F
:101B100023F480332B602B6823F480232B60002A6E
:101B2000D9D1FEF745FF06462B689F039AD5FEF7ED
:101B30003FFF801B6428F7D9D9E7694B9A6812F0F8
:101B40000C0F10D09A6802F00C02082A02D15B68D0
:101B50005E0208D5624A936803F00C030C2B11D186
:101B600053685D020ED45E4A1368990702D5E36894
:101B7000012BA6D11368216923F0F80343EAC103BE
:101B8000136072E7E268574BB2B101221A60FEF7A8
:101B90000FFF534D06462B689B0707D52B6822691C
:101BA00023F0F80343EAC2032B605EE7FEF700FF71
:101BB000801B0228EFD99AE71A60FEF7F9FE484D1C
:101BC00006462B689F077FF550AFFEF7F1FE801B9E
:101BD0000228F6D98BE76269424B82B10122C3F831
:101BE000802EFEF7E5FE3E4D06466B6F9B073FF5E8
:101BF00040AFFEF7DDFE801B0228F6D977E7C3F879
:101C0000802EFEF7D5FE364D06466B6F9F077FF59B
:101C100030AFFEF7CDFE801B0228F6D967E7304BC8
:101C20001A6C12F0805228D101921A6C42F0805244
:101C30001A641B6C03F080530193019B01262A4D0B
:101C40002B68D8051BD5A368254D012B27D12B6FF9
:101C500043F001032B67FEF7ABFE214D804641F2B6
:101C600088372B6F9A0741D5002E3FF406AF1C4AE8
:101C7000136C23F080531364FFE60026DFE72B6824
:101C800043F480732B60FEF793FE07462B68D9055B
:101C9000D9D4FEF78DFEC01B0228F7D927E7052B04
:101CA00004D12B6F43F004032B67D0E72A6F22F097
:101CB00001022A672A6F22F004022A67002BCAD188
:101CC000FEF776FE41F2883780462B6F9B07CBD517
:101CD000FEF76EFEA0EB0800B842F6D907E700BF9A
:101CE000003802400000474200700040FEF760FEEE
:101CF000A0EB0800B842B4D9F9E63C4DAA6802F05E
:101D00000C02082A41D0022B394B4FF000021A6610
:101D10002ED1FEF74DFE06462B68990122D4D4E958
:101D200007321343626A43EA8213E26A43EA0263B8
:101D3000226B43EA0273A26A2C4C5208013A43EA2E
:101D400002436B602A4B01221A66FEF731FE0546FC
:101D500023689A013FF595AEFEF72AFE401B022844
:101D6000F6D9C4E6FEF724FE801B0228D4D9BEE6CD
:101D7000FEF71EFE04462B689B017FF582AEFEF740
:101D800017FE001B0228F6D9B1E6012B3FF499AEED
:101D90006B68E26903F4800191427FF492AE216A9C
:101DA00003F03F028A427FF48CAE616A47F6C0724C
:101DB0001A40B2EB811F7FF484AEA26A520803F48A
:101DC0004031013AB1EB024F7FF47BAEE16A03F0A0
:101DD0007062B2EB016F7FF474AE226B03F0E043EC
:101DE000B3EB027F14BF0120002081E600380240DF
:101DF000000047420F230360204B1A68510356BF6F
:101E00001A684FF4A02202F4803242601A6802F08D
:101E10000102C2601A68C2F3C40202611A6F52075B
:101E200056BF1B6F052303F001038360134B5A6FEA
:101E300002F0010242611A6812F0807F0CBF012299
:101E4000022282615A6802F48002C2615A6802F07A
:101E50003F0202625A68C2F3881242625A6802F470
:101E6000403202F58032D20B82625A68C2F30362BA
:101E7000C2625B68C3F302730363704700380240B9
:101E800070470000F0B503685D689A68560685B033
:101E900004464FEA9211C2F3801708D4D60706D53C
:101EA0006E0604D5036C05B0BDE8F04018479607F0
:101EB00004D5280602D5636C2046F4E741EA5211A6
:101EC00002F4807001F0010101434FEA521657D02D
:101ED000AA0655D57FB194F85120032A4FF000018E
:101EE00048D0626D42F0040262650091DA680092A7
:101EF0009A680092009AF1070CD5626D42F00102D7
:101F00006265002202929A6802921A6822F04002E8
:101F10001A60029A40B1626D42F0080262650022C6
:101F200003929A680392039A626D4AB35A6822F048
:101F3000E0025A60012284F85120AA0722D05A6890
:101F4000E06C22F003025A6040B1104B0365FFF7CA
:101F50000DFB18B1636D43F040036365A06C78B16D
:101F60000A4B0365FFF702FB50B1636D43F040037A
:101F7000636505E00191DA6801929B680193019B1A
:101F800005B0F0BD2046FFF77BFFF9E7911F000881
:101F900008B5806B0023C387C386FFF771FF08BDB8
:101FA00070470000314A0368904212D0B0F1804F70
:101FB0000FD0A2F57C4290420BD002F58062904295
:101FC00007D002F58062904203D002F57842904239
:101FD00041D14A6823F070031343244A90421DD034
:101FE000B0F1804F1AD0A2F57C42904216D002F593
:101FF0008062904212D002F5806290420ED002F5CB
:10200000784290420AD01A4A904207D002F5806284
:10201000904203D002F58062904203D1CA6823F453
:10202000407313434A6923F0800313438A68C262F2
:102030000A6882620D4A904203D002F580629042A3
:1020400001D10A690263026842F0040202600122BF
:10205000426103607047074A9042DFD002F5806218
:102060009042DBD002F58062CBE700BF0000014068
:10207000001800400040014010B5044630B390F80D
:102080003D3003F0FF021BB980F83C20FFF788FFCA
:102090000223206884F83D30211DFFF783FF0123D0
:1020A00084F84630002084F83E3084F83F3084F8CD
:1020B000403084F8413084F8423084F8433084F86A
:1020C000443084F8453084F83D3010BD0120FCE7F1
:1020D000036A10B501F01F0101248C4023EA0403B8
:1020E0000362036A8A401A43026210BD08B529B927
:1020F00090F83E30012B18D001202CE004290DD19E
:1021000090F83F30013B18BF0123002BF4D1042984
:102110004FF0020320D180F83F3009E008290CBFBE
:1021200090F8403090F84130ECE7022380F83E30E0
:1021300000680122FFF7CCFF1B4A904213D01B4BD3
:10214000984210D0B0F1804F23D1836803F0070389
:10215000062B19D1002008BD08290CBF80F840309B
:1021600080F84130E4E7436C43F400434364904219
:10217000EBD00E4B9842E8D003F570539842E4D070
:10218000A3F594339842E0D0036843F00103036061
:10219000E0E7074B9842D8D003F580639842D4D04B
:1021A00003F580639842E3E700000140000401402A
:1021B000000400400268C16838B5136923F4405335
:1021C0000B431361054683680069D168034368695E
:1021D0000343E86921F4164121F00C0103430B434A
:1021E000D3605369A96923F440730B4353611F4BB8
:1021F0009A4203D003F580639A4224D1FFF7A8FBEB
:10220000EA691921B2F5004FD5E90043A0FB0101AD
:102210001CD1DA184FF0000545EB05030DF090FADC
:102220006422B0FBF2F102FB1103DB003233B3FB9B
:10223000F2F303F007025B0002EB011203F4F87300
:102240001344A36038BDFFF773FBD9E79A009B0FD7
:102250000DF076FA6422B0FBF2F102FB11031B01D0
:102260003233B3FBF2F303EB0113EAE70010014052
:10227000704710B5044648B390F8413003F0FF02B0
:102280001BB980F84020FFF7F3FF2268242384F86D
:102290004130D36823F40053D3602046FFF78AFF10
:1022A00023681A6922F490421A615A6922F02A02BC
:1022B0005A61DA6842F40052DA6000202023606438
:1022C00084F8413084F84230606310BD0120FCE79F
:1022D000044BD3F8882042F47002C3F88820024AE5
:1022E0009A60704700ED00E000000008154B9A6806
:1022F00002F00C02042A21D0082A21D159685A6818
:102300005B684902C3F388134CBF0F490F4902F0C1
:102310003F02B1FBF2F253430A4A5268C2F3014250
:1023200001325200B3FBF2F3064A09499268C2F344
:1023300003128A5CD340074A13607047024BF3E7ED
:10234000024BF1E70038024000127A000024F4004A
:1023500070090108D00100207047036801221B6941
:1023600000211847036800221B69114618476FF0C7
:102370001500704780F834130020704780F8501221
:102380000020704790F83403704790F8500270476F
:1023900000207047012070476FF01C0070470B68E9
:1023A00003604B6843608B688360704710B4D0E96A
:1023B00001320168541001EB6200D20748BF0A598C
:1023C00010BC48BFD3581847002070470120704701
:1023D0006FF01C007047C3680BB19B6818477047CB
:1023E0000C4B10B5036048330446C0F8E430D0F815
:1023F000380310B103685B68984704F54970FFF72C
:10240000EAFF04F5407001F06DFD204600F0E0FBAE
:10241000204610BD88090108A0F1E400FFF7E0BFE5
:1024200010B50446FFF7DCFF20464FF44F7101F072
:10243000E8FC204610BDA0F1E400FFF7F1BFD0F8A2
:10244000380308B520B100F0C1FA003818BF0120E8
:1024500008BD30B5002485B0224669460546039480
:1024600000F06EFB6846FFF7B6FF85F8364305B00F
:1024700030BD30B585B0002401226946054603947D
:1024800000F05EFB6846FFF7A6FF85F8354305B010
:1024900030BD10B5044601F073F8D4E940239A42E8
:1024A0000ABF94F80841002484F0010401F07EF88A
:1024B000204610BD38B500F5407400F5FA75204689
:1024C00001F0DAFC2846FFF7E4FF20B1204601F0D6
:1024D000EFFC002038BD204601F0EAFC012001F0AD
:1024E00092FCECE7A0F1E400FFF7E4BF38B5054645
:1024F000E830FFF7CEFF80F001042846E4B2FFF792
:102500009EFF18B144F40054204638BD95F8FC22D3
:1025100044F010031BB2824208BF1C46F4E7A0F14E
:10252000E400FFF7E3BF000038B504460D4601F0B4
:1025300027F8D4F800312A78E2540133B3F5807FCC
:1025400005D90D490D484FF4AF7200F057FF94F8CC
:10255000082108BF0023C4F800312AB1C4F80431AF
:10256000BDE8384001F022B8D4F804219A4204BFF3
:10257000012384F80831F3E7D4FD0008E5FD0008E5
:1025800070B504460E4600F0FBFFD4E940239A42A2
:1025900002D194F80851B5B1E35C3370D4F804313A
:1025A0000133B3F5807F05D909490A484FF4AF726A
:1025B00000F024FF4FF0000208BF1346C4F80431B6
:1025C00084F80821012500F0F1FF284670BD00BF06
:1025D000D4FD0008E5FD0008C36810B52BB9054916
:1025E00005484FF4FD7200F009FFBDE810401B687C
:1025F000184700BF37FE000842FE000870B50546C8
:102600000E4605F5497400F0BBFFB4420AD02046DF
:10261000FFF7E1FEF368C5F830331BB15B68314664
:1026200020469847D5F8303343B147F6FF71284626
:10263000FFF75CFF10B12046FFF7CEFFBDE870400A
:1026400000F0B4BFA0F1E400FFF7D8BF08B5D0F8A0
:1026500030331BB100F54970FFF7BEFF08BD73B5FD
:102660000446E830FFF715FF064694F8F0317BB9D1
:10267000204600F043FA58B1204600F0EBFA0DF185
:1026800007018DF8070004F1E800FFF74DFFECE7C4
:1026900094F836332BB194F8F03113B12046FFF79C
:1026A000D8FE56B104F1E800FFF7F3FE28B9204642
:1026B00002B0BDE87040FFF7C9BF02B070BD0000B6
:1026C0001FB5044600F05CFF94F8BC30C3B194F829
:1026D0003633ABB92046FFF7C2FF94F8F0217AB940
:1026E0000A4B03930A4B009469462046CDE9013218
:1026F00000F026FA6846FFF76EFE012384F83633B1
:1027000004B0BDE8104000F051BF00BF180A010836
:102710005F26000838B5044600F0ACF90F4B236083
:1027200000254833C4F8E430C4E97A55C4E9BD55FE
:1027300084F8F05184F8FC5204F5407001F094FBE9
:1027400001232046C4F83053A4F8343384F83653B8
:10275000C4F83853FFF7B4FF204638BD8809010894
:102760002DE9F8430746894615468AB307F54070B8
:1027700001F082FB07F1E800FFF78BFEB8B90446D1
:1027800007F1E800FFF785FE40B909EB040107F106
:10279000E8000134FFF7F4FEA542F1D13846FFF717
:1027A0008FFF07F5407001F083FB204608E097F8A3
:1027B000343307F540702BB901F07AFB6FF00A0053
:1027C000BDE8F88301F074FB012001F01CFBCDE7AC
:1027D0001046F5E7A0F1E400FFF7C2BF70B504466C
:1027E0000E4600F5407001F047FB3146204600F0F0
:1027F00044FA2046FFF764FF04F5407001F058FBEF
:10280000002070BDA0F1E400FFF7E8BF73B50446F7
:1028100090F8FC52204600F082F960B10DF10701FA
:1028200004F5FA70FFF7ACFE28B19DF807102046BA
:1028300000F013FAEEE794F835333BB104F5FA7083
:10284000FFF727FE10B12046FFF713FE65B194F89D
:10285000FC324BB92046FFF7F2FD28B9204602B002
:10286000BDE87040FFF7F2BE02B070BDF8B5054696
:102870000C46164600F5FA773846FFF70AFE20B1F7
:10288000A719BC4205D13046F8BD2846FFF7BEFF68
:10289000F2E714F8011B284600F0DFF9F1E7000029
:1028A0001FB5044600F06CFE94F8BD30DBB194F81F
:1028B0003533C3B92046FFF7A9FF04F5FA70FFF7D7
:1028C000E8FD80B90A4B03930A4B0094CDE901302F
:1028D00001226946204600F033F96846FFF77BFD88
:1028E000012384F8353304B0BDE8104000F05EBE2B
:1028F000180A01080D2800082DE9F04706460F4682
:102900001546002A44D000F038FE044630B12A466D
:1029100039463046BDE8F047FFF7A8BF06F54070DE
:1029200001F0AAFA96F8FC327BB9A7EB040AA5429B
:102930000AEB04071CD996F8FC32CBB9394606F5E8
:10294000FA70FFF7F1FD0134F1E796F83433A3B1E3
:1029500006F5407001F0ACFA012001F054FA06F5DA
:10296000407001F089FA96F8FC32002BF0D1DCE7D8
:102970003046FFF795FFA542D4D806F5407001F028
:1029800097FA002C14BF20466FF00A00BDE8F087CC
:102990001046FBE7A0F1E400FFF7AEBF70B50446B8
:1029A0000E4600F5407001F067FA3146204600F00F
:1029B000AFF92046FFF774FF04F5407001F078FA94
:1029C000002070BDA0F1E400FFF7E8BF83681A683B
:1029D00043681A4214BF012000207047CB68C360CF
:1029E0000BB15B68184770477047426810B482B1FA
:1029F000D0E9033404F0010123B951B161105158F9
:102A0000CB5801E00029F9D1816802EB640010BCC9
:102A1000184710BC7047000070B50446D0F8C410C9
:102A20004C3000F067FBD4F8D82092B1D4F8C8300D
:102A30001BB9D4F8CC30D8070BD5D4E937314E10B8
:102A400004EB6100C90744BFA159CB5894F8D010DA
:102A50009847D4F8B81004F14C00FEF7F9F9224673
:102A600004F14C000249BDE87040FDF7A9BC00BF6D
:102A7000692C0008F8B51E4B03601E4B436000250F
:102A80001D4B856017464C2204460E46C0E905558D
:102A9000C0E90755C360858445634564A0F8485084
:102AA00029460061104406F065FDC4E92D57C4F8BD
:102AB000A45040F20113A4F8BC30B388A4F8BE308F
:102AC000B389A4F8C0304FF6FF732046C4E93165DE
:102AD000C4E93655C4F8CC5084F8D050A4F8D230AC
:102AE000A4F8D430C4F8E050FFF796FF2046F8BDB4
:102AF0002C0A0108192A0008EB29000838B50546F8
:102B0000044655F84C3B1B6898472846FEF74EF99B
:102B1000236805465B6820469847284638BD38B587
:102B20000546044655F84C3B1B6898472846FEF777
:102B300055F9236805465B6820469847284638BD06
:102B400003682DE9F04105461B6816460F46984775
:102B500095F8BC30340103B1AEB195F8BD300BB17E
:102B6000012E10D098342C44BC4206D02046FFF7EA
:102B700032FC39462046FFF731FF2B6828465B6858
:102B8000BDE8F0411847983400F0FAFC2C44FA688C
:102B9000E368A2B10BB900F0A3FEA74206D020461D
:102BA000FFF719FC39462046FFF718FF012231468E
:102BB00005F14C00FDF710FC00F0F8FCDDE70BB16F
:102BC00000F0A4FE2046FFF706FC0022E260EEE7DC
:102BD0007FB51A4B0360002504462E462A466946F7
:102BE00020460396FFF7ACFF6846FFF7F4FB6B1C2B
:102BF000022B4FF00105F1D194F8BC3013B994F8D1
:102C0000BD301BB104F14C00FEF730F804F1A80010
:102C1000FFF7E1FB04F19800FFF7DDFB04F138005A
:102C2000FFF7D9FB04F12800FFF7D5FB206A08B1B4
:102C300000F0AAFB204604B070BD00BF2C0A0108BA
:102C400010B50446FFF7C4FF2046E42101F0D9F88F
:102C5000204610BD4C30FDF72DBC10B54C300C4655
:102C6000FDF744FC204610BD00EB0110983008B57C
:102C7000C3680BB1FFF7B0FC08BD036870B504462C
:102C80001B680D46984794F8BC30AB4217D0E5B9A5
:102C900000F076FC2A46294604F14C00FDF79CFB27
:102CA000D4F8A4308BBB00F081FC84F8BC5035B95B
:102CB00094F8BD301BB904F14C00FDF7D7FF236831
:102CC00020465B68BDE87040184794F8BD304BB9AA
:102CD000D4E90132511004EB6200D20744BF6258BC
:102CE000D358984700F04CFCD4F8A430002BDAD02D
:102CF00004F19800FFF770FC00F0F2FD01220021C2
:102D000004F14C00FDF768FBCDE700F0FFFDCAE7DA
:102D1000036870B504461B680D46984794F8BD30AB
:102D2000AB4217D0E5B900F02BFC2A46012104F193
:102D30004C00FDF751FBD4F8B4308BBB00F036FCEF
:102D400084F8BD5035B994F8BC301BB904F14C007F
:102D5000FDF78CFF236820465B68BDE8704018478C
:102D600094F8BC304BB9D4E90132511004EB620045
:102D7000D20744BF6258D358984700F001FCD4F8FA
:102D8000B430002BDAD004F1A800FFF725FC00F0E6
:102D9000A7FD0122114604F14C00FDF71DFBCDE714
:102DA00000F0B4FDCAE70000EFF3108372B6054AE5
:102DB000117831B90449DB4303F001030B7001239F
:102DC00013707047780F0020790F002008B5EFF3DB
:102DD0001083DB4313F0010304D006490648362272
:102DE00000F00CFB054A1370054B1B7803B162B66B
:102DF00008BD00BF7FFE00089BFE0008780F002082
:102E0000790F0020014B1878704700BF780F002021
:102E1000F8B50F46044615461E46FDF797FD0137E7
:102E200010D022685EB1A3681A6020460121FDF728
:102E3000B1FD29462046BDE8F840FDF7A7BDE3688F
:102E40001204F1E7F8BD13460022FFF7E1BF0022AC
:102E5000FFF7F9BF07B502468A4208460AD0531C5D
:102E600008D0013005D0002303490448009300F046
:102E70001DFD104603B000BDB5FE00083001018005
:102E8000B1F900305A1C01D118467047834201D174
:102E9000486870470C31F3E7421C13B504460AD06A
:102EA000FFF7EEFF431C06D10023044904480093BA
:102EB000224600F0FBFC02B010BD00BFC6FE0008B9
:102EC00030010180B1F900305A1C01D11846704719
:102ED000834201D1886870470C31F3E72DE9F04156
:102EE000456895F832706FBB03685B6898472C6A39
:102EF000844227D02B69A96895F934202862041BE5
:102F00001C40A1FB0441B2B1686A061941F10001FD
:102F1000BA4219DBC2F12000A2F1200326FA02F422
:102F200001FA00F021FA03F304431C43D14004FAF0
:102F300002F2B21A6A62D5E90A321B1941EB0201A8
:102F4000C5E90A31BDE8F081D5F80C803B46424620
:102F500030460CF0F5FB044608FB10606862EAE7B7
:102F6000824206D98A420BD9884294BF00200120B0
:102F70007047884206D98A428CBF002001207047E2
:102F800001207047002070472DE9F041446894F813
:102F900032300646002B61D194F83180B8F1000F31
:102FA0005CD1FFF79BFF6368002B59D0D3E9000386
:102FB000D4E90A1281429A4104D33368BDE8F04152
:102FC0005B6918477568D5E90A12401A63EB020C71
:102FD000D5E90572EB69824273EB0C031FD3EB68F2
:102FE000A3FB000103FB0C1195F93330A3B1AA68D0
:102FF00002F1FF3C1CEB000041F10001002B1BDB48
:10300000C3F1200CA3F12002D84001FA0CFC40EAE5
:103010000C0021FA02F21043874228BF07462B6AB0
:103020001F442B691F40236ABB4209D11149124832
:1030300040F2C91200F0E2F943460CF081FBEBE7E5
:10304000336838461B69984733685B6898473A4647
:103050000146206AFFF784FF0028AED1BDE8F08169
:103060006369206A2269184433681040BDE8F04162
:103070001B69184717FF000829FF000870B50546AF
:1030800000F07EFAD5E90034DB68984794F83230D6
:103090001BB1BDE8704000F089BA012384F83130DB
:1030A0006368A3B12846FFF719FF6368D4E90A6291
:1030B000D3E9000186428A4109D36A68DB68526815
:1030C00063602368002BEBD090689847E8E7002303
:1030D00084F831302846FFF757FFDAE770470000E1
:1030E000024B1B680BB1024818477047D4010020FF
:1030F0003C0A0108B1F90C20B1F90410FDF7E0BE5B
:1031000008B5BFF35F8F1C4BD3F8901011F47C4FC0
:1031100004D11A491A48412200F070F90022C1F383
:103120000721C3F8942010468A421FD11022C3F809
:103130009C20144AC3F8A0201322C3F89C20124AF2
:10314000C3F8A0201122C3F89C20104AC3F8A02085
:103150000F4AC3F89C200F4AC3F8A0200722C3F8E7
:103160009420BFF34F8FBFF36F8F08BDC3F8982033
:10317000C3F8A0000132D7E700ED00E082FF0008AD
:1031800091FF000839F00206390702133FF50B13CF
:103190001200008039000213102300F007B820232A
:1031A00000F004B8302300F001B840239C46F0B48E
:1031B00004AE7546E80801D3EFF309860E4F0FCE33
:1031C0000FC70FBC0FC74046494652465B460FC764
:1031D0001DCE3100A60A00D304316E0900D2483159
:1031E0001FC7EFF309806946EFF3148663C7604693
:1031F000014900F077F800BFB80F0020F0B52B4E62
:1032000085B000243546214656F8042B2848013461
:1032100000F09AF90D2CF6D1AB6C02936B6C019314
:103220002B6C244C0093D5E90E23696B224800F0E7
:103230008BF92168214800F087F9E16AA26AA36A44
:10324000A06A266BE76B000CCDE901670090C3F321
:1032500007231B48D2B200F077F9A36A1E0603D5F4
:10326000616B184800F070F9A36A180403D5A16BCC
:10327000154800F069F9EB6C190712D5134800F0F6
:1032800063F92B6DDA070FD5114800F05DF9EB6C8F
:103290005B074CBF0F48104805B0BDE8F04000F098
:1032A00053B90E4800F050F90D48EEE7B80F002072
:1032B0009EFF000800ED00E0ACFF0008FBFF0008E7
:1032C000090001085800010866000108740001089F
:1032D00083000108B3000108BF000108A300010832
:1032E0009000010807B504460D461A48012100F078
:1032F000ACF868BB184800F027F9302C19D0402CE6
:103300001CD0202C1FD11548154C00F01DF9154874
:1033100000F01AF9FFF772FF134800F015F90D4B92
:1033200000221A700023114900932A46204600F01B
:10333000BDFA0F480F4C00F007F9E8E70E480F4CB4
:1033400000F002F9E3E70E480E4C00F0FDF8DEE76E
:103350000024E7E785100020CB000108F4000108F5
:103360003E01FF80210101082C0101084B010108E9
:10337000030101083F01FF800C0101084001FF80AB
:10338000170101083D01FF80024B1B6803B118477C
:10339000704700BF0C100020036870B51B69012244
:1033A000002105469847041E0CDB2B6802221B698E
:1033B0000021284698472B6821461B6904460022B5
:1033C00028469847204670BD034B186818B14FF047
:1033D000FF3101F031BE7047DC140020024B186849
:1033E00008B101F041BE7047DC14002002F0BEBC01
:1033F00002F092BF02F0A6BB02F012BB07B50B466B
:10340000009201460022014800F050FA4401FF807A
:1034100003464FF00102D3E84F0FC3E8412FC0B27B
:103420000029F8D17047D0E85F3F5B18C0E8523FF1
:10343000002AF8D198B27047D0E85F3F5B1AC0E825
:10344000523F002AF8D198B270470346D3E84F0F95
:10345000C3E8421FC0B2002AF8D1704700B589B056
:1034600000F08EF800211C2201A806F083F8052147
:1034700001A8FFF7ECFC0424039B019A1A600E4894
:1034800000F0C4FC019B049A0B481B04136000F07D
:10349000BDFC013CF0D10424039B019A1A6007484B
:1034A00000F0B4FC019B049A04481B04136000F074
:1034B000ADFC013CF0D1DEE7F0490200801A0600C5
:1034C00073B5002201460446022000F023FB0D26BE
:1034D00000F056F800222378254623B902B0BDE853
:1034E000704000F063B80A2B04F1010409D10D2AE1
:1034F00007D001220DF1070102208DF8076000F0CE
:1035000009FB01222946022000F004FB14F8012CDB
:10351000E1E7000000B5A3B002460B4601A88421F4
:1035200005F0FEFE832806D9064B1A681B79CDF8F4
:1035300083208DF88730002802DD01A8FFF7C0FF47
:1035400023B000BD5B0101080FB407B504A951F811
:10355000040B0191FFF7DEFF03B05DF804EB04B04C
:103560007047EFF31080C04300F001007047EFF3A5
:103570000580003818BF01207047FFF743BC0000EA
:1035800008B5FFF711FC064A1368591C04D1054918
:1035900005483F22FFF732FF0133136008BD00BF2B
:1035A0001010002096010108A6010108044A1368C2
:1035B00023B1013B13600BB9FFF708BC704700BF94
:1035C0001010002008B50B48FFF722FF28B1FFF7C5
:1035D000D7FFBFF34F8F20BFFDE7FFF7C8FF08B14C
:1035E000FFF73CFFFFF7BDFF0028F9D0012000F0F6
:1035F000E5FB00BF841000202DE9FF41484C0E463A
:10360000216801F0C043B3F1C04F0CBF4D428DB2F1
:10361000C1F307438046174642482A46FFF794FF06
:103620006FF498731D44132D0FD8DFE805F00A528C
:1036300055585B615E640E0E0E0E0E0E0E0E0E0ED3
:103640000E67A1683848FFF77FFF4046FFF738FF55
:1036500061683648FFF778FF4EB13548FFF730FF15
:103660003046FFF72DFF33483946FFF76DFFA1685D
:103670003148FFF769FF2368304A9A18012A02D9B6
:103680002F4A93423ED1A268002A40D1E368002B22
:1036900044D059682B48002908BF0146E0690390CF
:1036A000A06902906069019020690090264D27482A
:1036B000002A0CBF2A4602462548FFF745FF21682D
:1036C0002448FFF741FF244804B0BDE8F041FFF76C
:1036D0003BBFA1682148B6E7A1682148B3E7A168CC
:1036E0002048B0E7A1682048ADE7A1681F48AAE7D5
:1036F000A1681F48A7E7A1681E48A4E71E48FFF776
:1037000023FFA2E71D4A9342BDD00022BEE792F8F4
:103710004C2082F00802C2F3C002B7E70949BDE7B6
:1037200018100020EC0101083D020108E502010823
:10373000F6020108FE02010802030108C2FE007F32
:103740004001FF80D70101084A010108E101010899
:10375000160301086F030108BE03010853020108A4
:10376000630201087202010885020108990201083A
:10377000AD020108BC020108D20201083D01FF8030
:103780007047000070B5294B8EB010EA200438BF96
:103790001C460D4616460021302202A805F0EAFE1E
:1037A000234B0194E318012B039502D9214B9C4232
:1037B00032D1EB6B02936B6B08931F4B5B690493E5
:1037C000DA6B05925A6B1B6B06920793FFF7D8FED4
:1037D0001A4A13680133012B136009D101AD0FCDD3
:1037E000174C0FC40FCD0FC40FCD0FC42B6823602F
:1037F00001AC0FCC134D0FC50FCC0FC50FCC0FC5AF
:1038000023682B60104B1B68A5F1300053B198471B
:10381000FFF7CCFE0EB070BD0C4B9C42C9D0029697
:1038200001ABC9E7FFF7ACFFF2E700BF0101FF8082
:10383000C2FE007F4001FF80E002002080100020D7
:103840004C10002018100020141000203D01FF80B3
:103850000FB407B50D4801217546FFF7F6FD044684
:1038600088B901462A460A48FFF78CFF09482246D4
:103870002146FFF7C1FE049805A90191FFF74AFE12
:103880000548FFF71DFEFFF79DFE00BF85100020D5
:103890000001FF80D803010849010108002070479A
:1038A000014B1878C0B270478510002080B50646DD
:1038B0000C460A480121F04617461D46FFF7C5FD94
:1038C00048B9424639463046FFF75CFF029A29461E
:1038D0002046FFF791FEFFF775FE00BF8510002020
:1038E00013B5074C01212046FFF79DFD034628B97B
:1038F0000090228803490448FFF7D8FF02B010BDAA
:1039000086100020ED0301082301048013B5094C43
:1039100001212046FFF790FD4FF6FF73984206D134
:1039200000230093228804490448FFF7BFFF02B038
:1039300010BD00BF861000200F0401082401048080
:10394000034B188880B2B0FA80F04009704700BF7E
:103950008610002008B5FFF713FEFFF7F1FF28B12E
:10396000FDF748FCBDE80840FFF720BEFDF730FC3E
:10397000F8E700207047002070470000074A084918
:1039800013681844884289BF064B10600C224FF020
:10399000FF308CBF1A601846704700BFD801002066
:1039A00000FC01204C2D002000207047024B5822C3
:1039B0001A604FF0FF3070474C2D002001207047F7
:1039C0000120704708B500F0FFFA08BD08B500F007
:1039D00003FB08BD10B50446037803F00303012B75
:1039E00008D0FFF7F1FC237803F00302012A03D18A
:1039F000FFF7F4FC002010BD2AB10549054840F24C
:103A0000D362FFF7FBFC43F0020323700120F2E7CF
:103A1000630401087504010808B5037803F0030284
:103A2000022A05D00749084840F2DC62FFF7E6FCAD
:103A300023F0030343F001030370BDE80840FFF7E0
:103A4000CDBC00BF63040108930401083F2870B592
:103A500004462CDC174E56F820305A1C25D102287B
:103A600023DCFFF788FF0346E8B92046FFF781FF14
:103A70000346C0B9104D2B68BFF35B8FDB0711D431
:103A80002846FFF7A7FF68B10C490D484FF4E13213
:103A9000FEF740FE0B4A0C490948FFF78FFF284606
:103AA000FFF7BAFF094B46F82430184670BD0023D3
:103AB000FBE700BFDC01002088100020680A010835
:103AC0008C100020C8010020E123000870110020A4
:103AD00038B5041E06DA05F04BFE092303604FF0EB
:103AE000FF3038BDFFF7B2FF084A002542F82450E6
:103AF0000028F0D003685B699847041E04DA05F0DB
:103B000037FE64420460EAE72846EAE7DC01002069
:103B1000FFF7DEBF38B50C461546FFF797FF38B9FB
:103B200005F026FE092303604FF0FF34204638BD20
:103B300003682146DB682A469847041EF6DA05F03A
:103B400017FE64420460EFE738B50C461546FFF7F0
:103B50007DFF38B905F00CFE092303604FF0FF34F8
:103B6000204638BD036821469B682A469847041EB4
:103B7000F6DA05F0FDFD64420460EFE710B5FFF7EB
:103B800065FF30B905F0F4FD0923036000242046E9
:103B900010BD0368DB699847041EF8DA05F0E8FDFC
:103BA00064420460F2E700002DE9F74F06460F4635
:103BB0009046FFF7DCFC054630B100232C492D4828
:103BC00000933246FFF772FEFFF7CBFC0028F4D0DB
:103BD000A84509DA05F0CCFD162303604FF0FF3449
:103BE000204603B0BDE8F08F3046FFF7C7FF04461C
:103BF00040B1DFF884A01AF806902C464FF00D0B68
:103C0000A84512DCA045EBDDA8EB040239193046CB
:103C1000FFF780FF431CE1D00444002CC1BF3F19D3
:103C2000154B17F8012C9A55DAE77B5D0A2B1BD14F
:103C3000B9F10D0F18D0AC420BDA39192A1B3046F6
:103C4000FFF768FF411CC9D00444A542C8DC0AF84C
:103C50000690012209493046FFF75CFF421CBDD0A7
:103C60000028BDD00AF806B017F805900135C7E75F
:103C7000CA0401082F010180C813002004050108AF
:103C8000FFF77CBF7FB504460E461546FFF76FFC75
:103C900030B100232049214800932246FFF706FE59
:103CA000FFF75FFC0028F4D0002D07DA05F060FD77
:103CB000162303604FF0FF3004B070BD2046FFF7BD
:103CC0005DFF00B3164D01220DF10F012046FFF7F5
:103CD0003BFF431CF0D00028EED09DF80F300D2B99
:103CE00008D12A5D0A2A0AD01A460A232A553370B7
:103CF0000120E1E70A2B04D12A5D0D2AF3E72B55B9
:103D0000E1E71A46F2E72A463146204604B0BDE80C
:103D10007040FFF719BF00BF060501082F010180A1
:103D20000814002038B50C461546FFF78FFE38B949
:103D300005F01EFD092303604FF0FF34204638BD17
:103D4000036821461B692A469847041EF6DA05F0E7
:103D50000FFD64420460EFE7FFF7E4BF10B5FFF723
:103D600075FE30B905F004FD092303604FF0FF3004
:103D700010BD03689B699847041E04DA05F0F8FC3F
:103D800064420460F2E70020F2E700000A4C08B544
:103D900023680546986804F05FFF2368D86804F03C
:103DA0005BFF0120FFF7DAFF0220FFF7D7FF0DB11D
:103DB000FFF754FBFEE700BFF809002008B5FFF746
:103DC000E5FF38B50D46FFF741FE044630B905F072
:103DD000CFFC092303604FF0FF3038BD0368DB6977
:103DE000984700280CBF4FF400434FF400536B601A
:103DF000236820469B6A984728610020EDE7FFF77B
:103E0000E0BF01F0ABBF00F075B80000034A516A93
:103E1000536A5B1A8342FBD3704700BF000C00401B
:103E20001FB5002303620D4B002918BF0B460093FA
:103E3000031D02931C230446039368460B2301933E
:103E400001F0E2F8206038B9FFF72AFD20B90449F3
:103E500004483E22FFF7D2FA04B010BD4205010823
:103E60008E0501089805010810B500210446FFF7EA
:103E7000D7FF204610BD000037B504464FF0FF3194
:103E8000006801F0D9F8054648B1FFF709FD03467F
:103E900040B90090044905482A46FFF707FD236A08
:103EA0000133236203B030BDBC0501081501028057
:103EB000036A013B13B50362006801F0D5F80446BC
:103EC00048B1FFF7EDFC034628B9009003490448C8
:103ED0002246FFF7EBFC02B010BD00BFCE05010883
:103EE0001701028010B50446006801F0D5F820469D
:103EF00010BD000008B538B100F03CFA20B103490C
:103F00000348E322FFF77AFA08BD00BF1406010850
:103F1000A806010808B50A4B0A4A1A600A4B9B1A00
:103F20000A4A13600A4B0B4A1A600B4B9B1A0B4A46
:103F300013600B4A136000F055F800F029F900BF38
:103F4000B814002000FC012000000220B41400205E
:103F500050140020582D002000FC01204C1400209B
:103F6000481400200F4A38B50F4B13600B250F4B38
:103F700055601C241046D460936001F045F80C4B4A
:103F80000C4A18600C4BD460C2E9003510460B4B4C
:103F9000936001F039F80A4B1860BDE8384005F02D
:103FA000EDBB00BF84140020B70601089414002064
:103FB000B014002054140020C4060108641400202A
:103FC0008014002001F002BD024B4FF0FF31186851
:103FD00001F032B8B0140020014B186801F044B869
:103FE000B014002070B50E4C636A43F4E0236362A2
:103FF000FFF786F80B4AA6680B481146002356F8CF
:10400000235041F8045B0133B3EB900FF7DBA26060
:10401000FCF700FDFDF79AF9BDE8704000F0B6B876
:1040200000ED00E000000020C40100007047704770
:1040300008B500F0DFF8FFF7F9FFFFF793FFFFF790
:10404000F6FFFFF72BFCBDE80840FFF7BBBF000001
:10405000A8B10C4B1B68B3FBF0F00138B0F1807FC6
:104060000DD2094BFF2283F823204FF0E0230622D4
:104070001A61586100209861044B187070474FF026
:10408000FF307047D001002000ED00E0BC1400209C
:10409000074B1A782AB100221A70064B4FF0806243
:1040A0005A604FF0E022136943F001031361704737
:1040B000BC14002000ED00E04FF0E0231B697047C6
:1040C0004FF0FF30704700001EF0040F0CBFEFF3FD
:1040D0000880EFF30980816911F8021C002931D1B1
:1040E00001B590E80F10E047BDE80050CCF80000A3
:1040F000234B93E80600914208BF70471A6041B90C
:104100001EF0100F10D11F4B186820F0010018602E
:104110000AE02CE9F00F1EF0100F08BF2CED108AFA
:1041200081F822E0C1F838C01400A06B94F922E0B5
:104130001EF0100F08BFB0EC108AB0E8F00F80F34B
:1041400009887047104A13689942FAD801B552F8A5
:1041500021C00FC8E047BDE80050CCF80000704710
:1041600001B500F0FBFFBDE80140EFF3098CBFE7AC
:1041700001B500F0B7FFBDE80140EFF3098CB7E7E8
:10418000F402002034EF00E0500B010800F006BA02
:1041900007B5104A104B13614FF4805353615023FD
:1041A000D3600E4B9360182393610D480D4B136041
:1041B000002101F05BFB034628B9064A0A4900903A
:1041C0000A48FFF773FB00F001FA00230849009347
:1041D0001A46F5E73025002030150020E0140020B5
:1041E00031400008CE060108D30601081D010180F8
:1041F000EF0601081FB5054B0FCB8DE80F00684691
:1042000000F002FF024B186005B000BD800A0108F3
:10421000DC14002073B506460C461546FFF740FB3C
:1042200068B9E31D8ABF074B07490634324688BF89
:1042300053F82410002300932846FFF737FB02B001
:1042400070BD00BF900A01081C08010808B500F005
:1042500071F8000007B50023411E009302460023B9
:10426000042919D8DFE801F003080C1014000C49E8
:104270000C480122FFF71AFB0B490C480222F9E710
:104280000B490C480322F5E70B490C480422F1E7DF
:104290000B490C480522EDE70B490C48EAE700BF43
:1042A0001407010825010280350701082601028054
:1042B0005A070108270102808F07010828010280A0
:1042C000CA0701082A0102800A08010800010280C9
:1042D000014A0146FFF79EBF31010180014AFFF705
:1042E00099BF00BF32010180014AFFF793BF00BFB1
:1042F00033010180014AFFF78DBF00BF3801018003
:1043000010B501F0CBFA034B1B6813B1BDE81040A8
:10431000184710BD5425002008B5FFF731F9FFF705
:10432000DFFAFFF717FBFFF7F1FABDE80840FFF7E8
:104330003DB9000008B5024C23689847FCE700BF70
:10434000DC02002008B5014630B96FF0030000F030
:104350002AF86FF0030008BD132001F0B3F930B95B
:104360004FF0FF3000F01FF84FF0FF30F3E7002070
:10437000F1E7000008B5EFF305834BB9EFF31083C5
:1043800033B9EFF311831BB9DFF814C000DF08BDA8
:104390006FF0050000F007F86FF00500F7E700BFC9
:1043A0004543000870477047EFF310832BB9EFF3D4
:1043B0001180C01A18BF012070470120704700000B
:1043C00070B5484C217A012900F08A8031B14FF054
:1043D000FF30FFF77DFF4FF0FF3070BD424D9C2254
:1043E00004F1080005F0C6F8D5E90B61EB68E36558
:1043F0002B8AA4F854303046AB68236400F0FCF8F4
:1044000008B1C4F88060D5E90561304600F0F4F8E1
:1044100008B9D4F880606667D5E90761304600F0D6
:10442000EBF808B9D4F88060A667D5E90961304691
:1044300000F0E2F808B9D4F88060E6676E6B3EB130
:10444000D6E902233168304600F03FF9C4F88460B1
:10445000AE6B3EB1D6E902233168304600F035F943
:10446000C4F88860EE6B3EB1D6E90223316830466D
:1044700000F02BF9C4F88C602E6C3EB1D6E9022313
:104480003168304600F021F9C4F890606E6C3EB19E
:10449000D6E902233168304600F017F9C4F8946079
:1044A000AE6C3EB1D6E902233168304600F00DF91A
:1044B000C4F89860EE6C3EB1D6E90223316830460C
:1044C00000F003F9C4F89C602D6D3DB1D5E90223DD
:1044D0002968284600F0F9F8C4F8A0500123237297
:1044E00000207AE7E0020020E00A010838B5204DFC
:1044F0002B7A012B07D06FF00700FFF7E9FE4FF092
:10450000FF34204638BD01F08FF910B94FF0FF306D
:10451000F3E7184A1849FF2382F8223092F8223034
:10452000D26893F0FF0314BFB3FA83F32023C3F1DF
:104530002003C2F30222934298BF531CFE2202FAC8
:1045400003F30C4AD3770D4B5868FFF781FD0446FF
:104550000028DBD1FFF7B4FD2861FFF799FD08487B
:1045600000F0E6FE00F05EFF02232B72C9E700BFF9
:10457000E002002000ED00E071410008E00A0108BF
:10458000FC020020704738B504460D46FFF70AFFCD
:1045900029462046BDE83840FFF75CBE08B5FFF766
:1045A000F1FFEFF3058333B16FF00500FFF790FEE5
:1045B0006FF0050008BDFFF7F7FE0028F4D1DFF823
:1045C00008C000DFF6E700BFC143000808B5EFF3FD
:1045D000058333B16FF00500FFF77AFE6FF0050039
:1045E00008BDFFF7E1FE0028F4D1DFF808C000DFC6
:1045F000F6E700BFED44000810B5034688B1084354
:1046000010F007000DD117290AD9196008391022B6
:104610005C189C605A60585099684A60D8600120C4
:1046200010BD0020FCE770B578B391B1032A2CD8F7
:104630000F3121F0070600F10804234624685D6865
:10464000E11A25F00305491B8E4204D9216800298F
:10465000F3D1084670BD4168056831444160284483
:10466000324350F8045CA94288BF40F8041C5868E3
:1046700018B95A6003F10801EBE720F0030019189C
:104680001C504A6019600831E3E70021E1E710B5EA
:1046900080B1C1B1A1F1080400F108030022A342D6
:1046A00009D1596821F003044168091B41603AB9F6
:1046B0005A60012010BD19681A4621B10B46EEE779
:1046C0001B681360F5E70846F4E730B5C0B189B15F
:1046D000C2B1CBB10024C0E9014202FB01F41D19B3
:1046E0000160C360436105611846013904D1A41A11
:1046F00019510121084630BD851805602846F4E7A8
:104700000146F7E71146F5E71946F3E710B570B132
:1047100000F1140353E8002F12B9BFF32F8F04E008
:10472000116843E8001404B1F4E70AB9104610BD5B
:10473000043050E8003F591C40E8001404B1F8E789
:10474000F4E730B5F0B1C3688B421BD803698B42E4
:1047500018D900F114031A680A60BFF35F8F53E899
:10476000002F0C689442F6D143E8001505B1F2E73A
:10477000043050E8003F5A1E40E8002101B1F8E73C
:10478000002030BD6FF00300FBE7EFF310832BB97F
:10479000EFF31180C01A18BF012070470120704745
:1047A000D1E9013223B19A608A681AB15360704727
:1047B000C262F9E7036370472DE9F84F0746884660
:1047C00038B131B1B0FA80F1B8FA88F30B441F2B3D
:1047D00008DC6FF003010020FFF78CFD0024204669
:1047E000BDE8F88F08F1030626F003060C3606FB39
:1047F00000F90AB35368DB0202D56FF00601EAE75D
:10480000D2E9024324B1342B04D06FF00901E2E76E
:10481000002BFAD1D2F800A0D2E904523DB115F034
:10482000030301D1914554D96FF00A01D3E7002A5F
:10483000FAD11CB193460DE092461546264BD3F8AB
:10484000A000E0B1FFF762FF0446A8B1002D3ED101
:104850004FF0010B204B0022D86F4946FFF7E3FED3
:104860001D4B0546B8B9BBF1000F05D0D3F8A00029
:10487000214658B1FFF765FF6FF00401ABE7D3F8AD
:10488000800001223421FFF7CEFEDDE7D3F880005F
:10489000FFF7FDFEF0E74A46002104F06BFE4BF007
:1048A0000203FA22A3700023C4E901A3C4E9098327
:1048B000C4E90B332270E37032462B46394604F1CB
:1048C0000C00FFF702FF044B044A1A6787E7012335
:1048D000E7E7002CE5D1B1E7E00200206F490008CE
:1048E00010B500F1280353E8002F12B9BFF32F8F42
:1048F00004E0511E43E8001404B1F4E70AB90020B3
:1049000010BDC06A4FF001020028F8D0811CD1E828
:104910004F3FC1E8442F04B1F9E7DBB2002BEFD0E1
:104920008068F1E7036B30B5E3B1CD780024DA7825
:10493000AA420FD31A46C1E901248AB19160A4B1F9
:104940006160283050E8003F5A1C40E8002101B166
:10495000F8E730BD5A681C46002AECD01346E6E75B
:10496000C162ECE7C1E90133C1620163E9E7F8B56F
:10497000867804468EB3C568014600262846FFF7B0
:104980000FFF267005F10C00FFF7DBFEAB68002B74
:1049900049D005F10C00FFF7B9FE0446002842D0CB
:1049A000284600F0C5FC32460746314600F064FE5A
:1049B000384600F02DFD6A6A4168074604F10C0094
:1049C00004F06EFFF9232370A670BB68E3702146E4
:1049D0002846BDE8F840FFF7A5BF8568AB68002B07
:1049E000F5D05B78832BF2D1284600F0A1FC32464B
:1049F0003146074600F040FE384600F009FD064605
:104A00006A6A406804F10C0104F04AFFB3680BB114
:104A1000E2781A7000232370214605F10C00BDE8EE
:104A2000F840FFF78EBEF8BD2DE9F04104460E4672
:104A300090461F4618B10378FA2B00D141B92046A1
:104A40006FF00301FFF756FC6FF00300BDE8F08143
:104A50008368C3B15B78832B15D100F069FC012218
:104A60000546002100F008FE284600F0D1FC05466E
:104A7000626A4068314604F013FFAB680BB183F8FB
:104A800000800020E2E704F10C00FFF73FFE05463E
:104A900078B13146626A0C3004F002FFF9232B70C2
:104AA0000023AB7085F8038029462046FFF73AFFC4
:104AB000E7E76FB13946932000F004FE10B96FF0BC
:104AC0000100C3E7044B2046596900F01FFCF6E7DC
:104AD0006FF00200BAE700BFE00200202DE9F041CC
:104AE0000446884617461E4618B10378FA2B00D1B3
:104AF00041B920466FF00301FFF7FCFB6FF00300A4
:104B0000BDE8F081FFF7ECFE054600283AD00146EB
:104B10002046FFF745FE626A05F10C01404604F0AD
:104B2000BFFE0FB1EB783B70002604F10C072E702E
:104B300029463846FFF705FEA3680BB90020DFE7DA
:104B40003846FFF7E3FD05460028F7D0204600F081
:104B5000EFFB31460746012200F08EFD384600F09B
:104B600057FC626A4168074605F10C0004F098FEA4
:104B7000F9232B70AE70BB68EB7029462046FFF717
:104B8000D1FEDBE76EB13146832000F09BFD10B90A
:104B90006FF00100B4E7044B2046596900F0B6FB02
:104BA000F6E76FF00200ABE7E002002008B5064B25
:104BB00008219A6ED86EFFF7FFFD044BD864B0FA57
:104BC00080F04009404208BDE00A0108E0020020F0
:104BD0002DE9F04106460F4690461C46EFF305834B
:104BE0004BB196B930466FF00301FFF783FB6FF0CE
:104BF0000300BDE8F081FFF7C8FD0028F1D1DFF820
:104C00004CC03046234600DFF3E73378FA2BE9D176
:104C1000002FE7D0002CE5D106F10C00FFF776FD60
:104C2000054680B1726A39460C3004F039FEF9232A
:104C30002846C5E901762B70AC7085F8038000F03A
:104C4000D5FA2046D5E76FF00200D2E7294A0008DE
:104C5000F8B504460F4616461D46EFF3058343B1EB
:104C60008CB920466FF00301FFF744FB6FF003009F
:104C7000F8BDFFF78AFD0028F2D1DFF848C02046D2
:104C80002B4600DFF4E72378FA2BEAD1002FE8D097
:104C9000002DE6D12046FFF723FE054670B100F156
:104CA0000C01626A384604F0FBFD0EB1EB783370FC
:104CB0002846EC6000F09AFA0020D9E76FF0020075
:104CC000D6E700BFDD4A0008EFF310832BB9EFF3FE
:104CD0001180C01A18BF01207047012070470000E2
:104CE00038B558B3446814F4801206D06FF006014A
:104CF0000020FFF7F9FA002038BD0568D0E902036B
:104D000020B11C2B24D06FF00901F1E7002BFAD160
:104D1000124BD3F89400A0B1FFF7F8FCD0B10123F7
:104D2000F522837004F00F040023C0E90233C0E9C8
:104D300004330270C47045600376DDE7054604461F
:104D4000E6E7D3F8800001221C21FFF76CFCE5E7C1
:104D50001346E5E76FF00401CBE700BFE002002057
:104D6000294B70B55D6904460E4635B96FF00801F0
:104D7000FFF7BAFA4FF0FF3070BD10B10378F52B92
:104D800007D020466FF00301FFF7AEFA6FF0030083
:104D9000F2E7037E53B9C0E90353EB6A436103B101
:104DA0001861EC62012323760020E5E7C278D10781
:104DB0000DD5C168A9420AD1FF2B06D16FF01101B0
:104DC000FFF792FA6FF00200D6E70133EBE7002E0F
:104DD000F8D093070AD5E06895F9203090F92020A3
:104DE0009A4203DA80F8203000F0B4FA31465320BA
:104DF00000F068FC10B96FF00100BDE729462046BD
:104E000000F084FAF7E700BFE00200202F4B5A6958
:104E100070B5044632B96FF00801FFF765FA4FF03C
:104E2000FF3070BD10B10378F52B07D020466FF02E
:104E30000301FFF759FA6FF00300F2E7037E33B97D
:104E40006FF01001FFF750FA6FF00200E9E7C16858
:104E5000914202D06FF00F01F4E7013BDBB2037621
:104E60000BB10020DDE743690BB1016919612169CC
:104E7000E9B14B6192F92130D56AD5B982F8203079
:104E8000A36883B1204600F053FA06462A46294615
:104E900000F0F2FBF36A6361C4E9036503B11C61CE
:104EA0000123F4622376002000F0CCFAD9E7D36224
:104EB000E0E7E978890706D5A96821B191F92010C2
:104EC0008B42B8BF0B466D69D7E700BFE0020020F8
:104ED00010B5044610B10378F52B07D020466FF0CB
:104EE0000301FFF701FA6FF0030010BD037EC3B1A9
:104EF0006369C0680BB122691A612269FAB1536112
:104F000090F92120C36AE3B990F92030934203D08D
:104F100080F8202000F01EFAA068F0B9207600F09A
:104F200091FA00232370A378DB0706D5124BD3F840
:104F300094002146D0B1FFF704FC0020D5E7C362FE
:104F4000DEE7D978890706D5996821B191F9201053
:104F50008A42B8BF0A465B69D5E7204600F0E8F907
:104F600000226FF0020100F087FBD5E7D3F8800044
:104F7000FFF78DFBE1E700BFE00200202DE9F041E3
:104F80000446002601270CB9BDE8F081E378D4F887
:104F900014801B0712D5A36826767BB1204600F04B
:104FA000C7F900220546114600F066FBEB6A636113
:104FB000C4E9035603B11C61EC6227764446E2E77C
:104FC00010B4C3789B071CD5C06890F92120C36A30
:104FD000DC78A40709D59C688C4208BF8C6824B192
:104FE00094F92040A242B8BF22465B69002BEFD162
:104FF00090F92030934204D080F8202010BC00F0BB
:10500000A9B910BC7047000008B50246EFF305834C
:1050100033B100206FF00501FFF766F9002008BDED
:10502000FFF752FE0028F4D1DFF808C0104600DF79
:10503000F5E700BFE14C000808B50246EFF3058331
:105040003BB110466FF00501FFF74EF96FF0050018
:1050500008BDFFF739FE0028F3D1DFF808C010467D
:1050600000DFF5E7614D000808B50246EFF3058360
:105070003BB110466FF00501FFF736F96FF0050000
:1050800008BDFFF721FE0028F3D1DFF808C0104665
:1050900000DFF5E70D4E000808B50246EFF3058383
:1050A0003BB110466FF00501FFF71EF96FF00500E8
:1050B00008BDFFF709FE0028F3D1DFF808C010464D
:1050C00000DFF5E7D14E000810B5D0E85F3F5A1C6D
:1050D000914200D80022C0E8542F04B1F5E798B2FD
:1050E00010BD000038B51C4CFEF7E6FFE368013345
:1050F000E36000F069F9002000F0A4F9236D03B12A
:105100009847226C32B3A369E16B994203D0D96905
:10511000E36301B9DA61DA69C2B9237A022B19D1E2
:10512000656ABDB1E36B95F9202093F920309A426E
:1051300010D1284600F005F9E06B00F01DF9284673
:1051400000F070F9236CE563EB6103E0013ADA618A
:10515000002AE2D038BD00BFE002002038B5214C63
:1051600004F15605B4F85410D5E85F3F13B9BFF306
:105170002F8F04E05A1EC5E8502F00B1F4E79BB210
:105180005BB31948FFF7A0FFE36D53F8200020B38D
:105190000378F13B082BE5D801A252F823F000BFB9
:1051A000C551000865510008CB5100086551000841
:1051B00065510008CF510008D3510008655100081F
:1051C000D7510008236E9847CCE7636EFBE7A36EC8
:1051D000F9E7E36EF7E7236FF5E7BDE83840002015
:1051E00000F030B9E00200203A03002070B5164C00
:1051F0000546B4F8541004F15602D2E85F3F9942D4
:1052000002D8BFF32F8F04E0581CC2E8560F06B136
:10521000F3E79BB2994205D829460220BDE87040C9
:10522000FFF7B1B904F15800FFF74EFFE36D43F803
:105230002050637A23B9054B4FF080525A6070BDFD
:105240000123A372FBE700BFE002002000ED00E0B5
:10525000EFF310832BB9EFF31180C01A18BF0120B0
:1052600070470120704700000A4A90F9201001237E
:1052700010B54370536A1C321BB193F920408C4225
:1052800005DCC0E90232906003B1D86010BD1A4657
:105290009B68F1E7E0020020014B5869704700BFAE
:1052A000E0020020930710B502F0010422D400F1BF
:1052B000280384B153E8000F00EA01028A4203D0B8
:1052C000BFF32F8F002005E020EA010243E800240D
:1052D00004B1EFE710BD53E8000F084203D1BFF35C
:1052E0002F8F002005E020EA010243E8002404B1EA
:1052F000F1E7EFE7806A00EA01031CB1994218BFA9
:105300000020E7E7A34208BF2046E3E710B591F984
:10531000202083681BB193F92040944205DAC1E94B
:105320000230816003B1D96010BD18469B68F1E777
:1053300083689A68826002B1D0600022DA60184601
:105340007047C2682AB18368936003B1DA600023B2
:10535000C360704710B5044664B12378F12B07D0C1
:10536000FFF7EFFF01462046BDE81040FFF7CEBF34
:10537000E468F1E710BD00000123014643700148D5
:10538000FFF7C4BFFC02002010B5C469621CD0E95D
:1053900004310CD103B1596142691AB11361002380
:1053A000436101E0074A13630023C36110BD1BB1D1
:1053B000DA6959612244DA614269002AEED1014A70
:1053C000D362F1E7E002002038B5104DEC6AE4B199
:1053D000E369013BE361C3B96378532B08D12046ED
:1053E00000E0C0680378F12BFBD02146FFF7E8FD11
:1053F0002046FFF7A6FFFFF7BFFF246924B1E3694A
:10540000002BE9D000236361EC6238BDE00200208C
:1054100090F82230826B13F0100F14BF2020602010
:1054200010447047C27802235207437058BF0323C9
:1054300083F31488BFF36F8F014B9861704700BFEF
:10544000E002002010B5144B04461A7A5969A0B93D
:10545000022A1FD15C6AECB194F9202091F9203026
:105460009A4217DD2046FFF76CFF0846FFF7FCFE67
:105470002046BDE81040FFF7D5BF022A05D190F9BC
:10548000202091F920309A42EFDC2046BDE8104000
:10549000FFF772BF10BD00BFE00200202DE9F74FFB
:1054A0001746CDE9000148B96FF003010020FEF76F
:1054B00015FF0024204603B0BDE8F08F002A5CD021
:1054C000D2F8048008F00603062BEDD018F4801FF4
:1054D00002D06FF00601E9E7D2E9024224B1502A76
:1054E00004D06FF00901E1E7002AFAD1D7E90456A8
:1054F0002DB1690700D116B96FF00B01D6E7D7F8C7
:1055000018A0BAF1000F06D00AF1FF32372A04D9E9
:105510006FF00C01CAE74FF0180A3F683BB9504BD7
:105520001B68DA074CBF48F0040848F0020826B1AF
:105530004C4B1E42E0D1472EDED964BB4A4BD3F818
:10554000880008B3FFF7E2F8044698B14FF001096C
:1055500045BBDFF814B1002E62D1414ADBF884006C
:10556000566D00285CD0FFF7D1F80546B0B9B9F107
:10557000000F5FD16FF0040198E7154614464FF015
:10558000180A16469046CAE7D3F880000122502137
:10559000FFF749F8D8E74FF00009D9E749F01009BB
:1055A00049F0020940F2F11323800023C4E90233D9
:1055B000C4E90433C4E90633C4E90933C4E90B354B
:1055C000A6F140032B44A363009BE36308F00F089C
:1055D000264B84F80290FD2284F80380676084F8EB
:1055E00020A084F821A0628466632B601C4B1B689A
:1055F0005B072BD4A36B38220021184603F0BAFFB7
:105600001B4A82634FF08072C263019A0262164B9A
:10561000009A4262174A1A662046FFF713FF49E7CD
:105620002A46DBF874003146FEF7FDFF05460028E8
:10563000B6D19CE7DBF88800214610B1FFF781F86E
:1056400098E7DBF88000FFF722F893E7B608113EF1
:105650004FF0CC33002ECDD045F8043F013EF9E7A2
:10566000E00A010807000080E0020020A52E5AE2AF
:10567000E15800089D56000838B505461446FFF766
:10568000C7FE01602846FFF77FFE1CB1BDE8384029
:10569000FFF7D8BEBDE83840FFF76EBE10B54378BF
:1056A000332B04460CD1416A90F82320FFF7FAFD12
:1056B000014628B120460022BDE81040FFF7DCBFBC
:1056C00010BD000038B51E4C237A022B34D1636A1A
:1056D000002B33D063694A1C587015D1226B00210E
:1056E0006AB94FF0FF30C3E90421D86151B10B61B1
:1056F0001448FFF71DFEFFF795FE012038BD114647
:105700001269EDE72363F3E7E26A002012B1D5697D
:10571000A9420BD2C3E90420D96158B10361002A20
:10572000E6D0D0695361401AD061E1E71046491BC9
:105730001269EBE7E362F2E70020DFE71846DDE7F6
:10574000E0020020FC02002010B50446806918B178
:1057500000221146FFF790FF6378232B02BFA36856
:1057600000229A6110BD704710B50446FFF7FBFF99
:1057700000232380A3789A0708D513F0100F216B1C
:105780000E4B0FD0D3F88400FEF7DBFFA378DB07C6
:1057900012D50A4BD3F88800214638B1BDE8104035
:1057A000FEF7CFBF586FFEF772FFEFE7BDE810407E
:1057B000D3F88000FEF76BBF10BD00BFE0020020F1
:1057C000C378DB0701D4FFF7CFBF0423044A43703B
:1057D0000023C360536B836003B1D860506370478C
:1057E000E002002038B50F4C237A022B18D1636AEF
:1057F000B3B16569E86AFFF7C1FB2846FFF7A4FF6C
:1058000004F11C00FFF794FDFFF70CFEEFF3098392
:10581000AB63002363612846BDE83840FFF7D0BF83
:1058200038BD00BFE002002038B50D4C0D48A26D18
:105830000D4D0021FFF732FE636EA8625BB1984701
:1058400058B9E26DE96C206EFFF728FEA8640038B5
:1058500018BF012038BD0120FCE70020FAE700BF97
:10586000E00A01084D420008E002002010B504469D
:10587000EFF3058333B100206FF00501FEF72EFD35
:10588000002010BDFFF7E4FC0028F4D1DFF808C0C9
:10589000204600DFF5E700BF9D54000808B5EFF390
:1058A000058313B1054B586908BDFFF7D1FC0028EB
:1058B000F8D1DFF80CC000DFF6E700BFE0020020FF
:1058C0009952000808B5FEF71BFDDFF810C000DF95
:1058D0004FF0FF310020FEF701FDFEE7E55700081D
:1058E00008B58847FFF7EEFF30B50C4D6B6C002212
:1058F00013B11C698C420AD9C0E9022301611BB1B2
:105900001C699860641A1C612AB1D06030BD1A46C7
:10591000091BDB68ECE76864F8E700BFE0020020E1
:105920002DE9F041184D6C6C54B323696E69013B4D
:1059300023610127236913BBE3680BB1A2689A6056
:105940006B640023E86C1A4604F11801FFF740F974
:1059500058B1D5E90583214603206B61FEF713FE9C
:105960006B6913B9B04508BF1E46E378DB0709D55C
:1059700061692046FFF7B8FF6C6C002CDAD16E61CC
:10598000BDE8F0816770F7E7E002002008B5FFF797
:105990000DF918B9034B044A1A6508BD4FF0FF30E2
:1059A000FBE700BFE00200202159000807B50446CC
:1059B0004FF0FF33002269462046FFF749F90028DF
:1059C000F6D1DDE900309847F2E7000010B50A484B
:1059D0000A4C03F055FC636809481A6823681A42A8
:1059E00016BFE268A2681B04136003F049FC4FF481
:1059F000FA60FEF77FFAEEE7E5080108C02B002009
:105A0000FD08010808B5002104481C2203F0B2FD7E
:105A1000BDE8084001480521FDF719BAC02B002058
:105A200010B5A1FB021482B074BBFDF7DFFC034686
:105A300070B350F8042C22F00302043A242A10D840
:105A4000132A16D91B2AC0E900441AD9242AC0E90E
:105A500002440ABFC0E9044400F1100100F118013A
:105A600008E02146019003F085FD019B184602B035
:105A700010BD014600221846C1E900228A6002B02A
:105A800010BD00F10801F5E703F072FE0C2303607E
:105A90000023184602B010BDF8B5064608200C4693
:105AA00003F09AFE07463046FDF78CFF224A9368C2
:105AB0005D6825F00305A5F111031C1B3C44B4FBF4
:105AC000F7F4013C07FB04F4A74208DC0021304650
:105AD00003F026FE184A93682B44984204D03046BF
